{
  "_format": "hh-sol-artifact-1",
  "contractName": "VotingSystem",
  "sourceName": "contracts/smart_contract.sol",
  "abi": [
    {
      "inputs": [],
      "stateMutability": "nonpayable",
      "type": "constructor"
    },
    {
      "inputs": [
        {
          "internalType": "uint256",
          "name": "startTime",
          "type": "uint256"
        },
        {
          "internalType": "uint256",
          "name": "currentTime",
          "type": "uint256"
        },
        {
          "internalType": "uint256",
          "name": "timeRemaining",
          "type": "uint256"
        }
      ],
      "name": "VotingNotStarted",
      "type": "error"
    },
    {
      "anonymous": false,
      "inputs": [
        {
          "indexed": true,
          "internalType": "address",
          "name": "voter",
          "type": "address"
        },
        {
          "indexed": true,
          "internalType": "uint256",
          "name": "votingId",
          "type": "uint256"
        },
        {
          "indexed": false,
          "internalType": "uint256",
          "name": "propositionIndex",
          "type": "uint256"
        }
      ],
      "name": "VoteCast",
      "type": "event"
    },
    {
      "anonymous": false,
      "inputs": [
        {
          "indexed": true,
          "internalType": "uint256",
          "name": "votingId",
          "type": "uint256"
        },
        {
          "indexed": false,
          "internalType": "string",
          "name": "title",
          "type": "string"
        },
        {
          "indexed": false,
          "internalType": "enum VotingType",
          "name": "votingType",
          "type": "uint8"
        }
      ],
      "name": "VotingCreated",
      "type": "event"
    },
    {
      "inputs": [
        {
          "internalType": "address",
          "name": "_admin",
          "type": "address"
        }
      ],
      "name": "addAdmin",
      "outputs": [],
      "stateMutability": "nonpayable",
      "type": "function"
    },
    {
      "inputs": [
        {
          "internalType": "address",
          "name": "_voter",
          "type": "address"
        }
      ],
      "name": "addVoter",
      "outputs": [],
      "stateMutability": "nonpayable",
      "type": "function"
    },
    {
      "inputs": [
        {
          "internalType": "address",
          "name": "",
          "type": "address"
        }
      ],
      "name": "admins",
      "outputs": [
        {
          "internalType": "bool",
          "name": "",
          "type": "bool"
        }
      ],
      "stateMutability": "view",
      "type": "function"
    },
    {
      "inputs": [],
      "name": "chairman",
      "outputs": [
        {
          "internalType": "address",
          "name": "",
          "type": "address"
        }
      ],
      "stateMutability": "view",
      "type": "function"
    },
    {
      "inputs": [
        {
          "internalType": "string",
          "name": "_title",
          "type": "string"
        },
        {
          "internalType": "uint256",
          "name": "_startTime",
          "type": "uint256"
        },
        {
          "internalType": "uint256",
          "name": "_endTime",
          "type": "uint256"
        },
        {
          "internalType": "enum VotingType",
          "name": "_votingType",
          "type": "uint8"
        },
        {
          "internalType": "bytes32",
          "name": "_metaCID",
          "type": "bytes32"
        },
        {
          "internalType": "bytes32[]",
          "name": "_propositions",
          "type": "bytes32[]"
        }
      ],
      "name": "createVoting",
      "outputs": [],
      "stateMutability": "nonpayable",
      "type": "function"
    },
    {
      "inputs": [
        {
          "internalType": "uint256",
          "name": "page",
          "type": "uint256"
        },
        {
          "internalType": "uint256",
          "name": "perPage",
          "type": "uint256"
        }
      ],
      "name": "getActiveVotings",
      "outputs": [
        {
          "components": [
            {
              "internalType": "uint256",
              "name": "id",
              "type": "uint256"
            },
            {
              "internalType": "string",
              "name": "title",
              "type": "string"
            },
            {
              "internalType": "uint256",
              "name": "startTime",
              "type": "uint256"
            },
            {
              "internalType": "uint256",
              "name": "endTime",
              "type": "uint256"
            },
            {
              "internalType": "bytes32",
              "name": "metaCID",
              "type": "bytes32"
            },
            {
              "internalType": "bytes32[]",
              "name": "propositions",
              "type": "bytes32[]"
            },
            {
              "internalType": "enum VotingType",
              "name": "votingType",
              "type": "uint8"
            }
          ],
          "internalType": "struct VotingInfo[]",
          "name": "votingsInfo",
          "type": "tuple[]"
        },
        {
          "internalType": "uint256",
          "name": "totalActive",
          "type": "uint256"
        }
      ],
      "stateMutability": "view",
      "type": "function"
    },
    {
      "inputs": [
        {
          "internalType": "uint256",
          "name": "page",
          "type": "uint256"
        },
        {
          "internalType": "uint256",
          "name": "perPage",
          "type": "uint256"
        }
      ],
      "name": "getCompletedVotings",
      "outputs": [
        {
          "components": [
            {
              "internalType": "uint256",
              "name": "id",
              "type": "uint256"
            },
            {
              "internalType": "string",
              "name": "title",
              "type": "string"
            },
            {
              "internalType": "uint256",
              "name": "startTime",
              "type": "uint256"
            },
            {
              "internalType": "uint256",
              "name": "endTime",
              "type": "uint256"
            },
            {
              "internalType": "bytes32",
              "name": "metaCID",
              "type": "bytes32"
            },
            {
              "internalType": "bytes32[]",
              "name": "propositions",
              "type": "bytes32[]"
            },
            {
              "internalType": "enum VotingType",
              "name": "votingType",
              "type": "uint8"
            }
          ],
          "internalType": "struct VotingInfo[]",
          "name": "votingsInfo",
          "type": "tuple[]"
        },
        {
          "internalType": "uint256",
          "name": "totalCompleted",
          "type": "uint256"
        }
      ],
      "stateMutability": "view",
      "type": "function"
    },
    {
      "inputs": [
        {
          "internalType": "uint256",
          "name": "page",
          "type": "uint256"
        },
        {
          "internalType": "uint256",
          "name": "perPage",
          "type": "uint256"
        }
      ],
      "name": "getIncomingVotings",
      "outputs": [
        {
          "components": [
            {
              "internalType": "uint256",
              "name": "id",
              "type": "uint256"
            },
            {
              "internalType": "string",
              "name": "title",
              "type": "string"
            },
            {
              "internalType": "uint256",
              "name": "startTime",
              "type": "uint256"
            },
            {
              "internalType": "uint256",
              "name": "endTime",
              "type": "uint256"
            },
            {
              "internalType": "bytes32",
              "name": "metaCID",
              "type": "bytes32"
            },
            {
              "internalType": "bytes32[]",
              "name": "propositions",
              "type": "bytes32[]"
            },
            {
              "internalType": "enum VotingType",
              "name": "votingType",
              "type": "uint8"
            }
          ],
          "internalType": "struct VotingInfo[]",
          "name": "votingsInfo",
          "type": "tuple[]"
        },
        {
          "internalType": "uint256",
          "name": "totalIncoming",
          "type": "uint256"
        }
      ],
      "stateMutability": "view",
      "type": "function"
    },
    {
      "inputs": [
        {
          "internalType": "uint256",
          "name": "votingId",
          "type": "uint256"
        }
      ],
      "name": "getPropositions",
      "outputs": [
        {
          "internalType": "bytes32[]",
          "name": "",
          "type": "bytes32[]"
        }
      ],
      "stateMutability": "view",
      "type": "function"
    },
    {
      "inputs": [
        {
          "internalType": "address",
          "name": "_addr",
          "type": "address"
        }
      ],
      "name": "getRole",
      "outputs": [
        {
          "internalType": "string",
          "name": "",
          "type": "string"
        }
      ],
      "stateMutability": "view",
      "type": "function"
    },
    {
      "inputs": [
        {
          "internalType": "uint256",
          "name": "id",
          "type": "uint256"
        }
      ],
      "name": "getVoting",
      "outputs": [
        {
          "components": [
            {
              "internalType": "uint256",
              "name": "id",
              "type": "uint256"
            },
            {
              "internalType": "string",
              "name": "title",
              "type": "string"
            },
            {
              "internalType": "uint256",
              "name": "startTime",
              "type": "uint256"
            },
            {
              "internalType": "uint256",
              "name": "endTime",
              "type": "uint256"
            },
            {
              "internalType": "bytes32",
              "name": "metaCID",
              "type": "bytes32"
            },
            {
              "internalType": "bytes32[]",
              "name": "propositions",
              "type": "bytes32[]"
            },
            {
              "internalType": "enum VotingType",
              "name": "votingType",
              "type": "uint8"
            }
          ],
          "internalType": "struct VotingInfo",
          "name": "",
          "type": "tuple"
        }
      ],
      "stateMutability": "view",
      "type": "function"
    },
    {
      "inputs": [
        {
          "internalType": "uint256[]",
          "name": "ids",
          "type": "uint256[]"
        }
      ],
      "name": "getVotingBatch",
      "outputs": [
        {
          "internalType": "string[]",
          "name": "titles",
          "type": "string[]"
        },
        {
          "internalType": "bytes32[][]",
          "name": "cids",
          "type": "bytes32[][]"
        }
      ],
      "stateMutability": "view",
      "type": "function"
    },
    {
      "inputs": [
        {
          "internalType": "uint256",
          "name": "_votingId",
          "type": "uint256"
        }
      ],
      "name": "getVotingStats",
      "outputs": [
        {
          "internalType": "uint256",
          "name": "totalVoters",
          "type": "uint256"
        },
        {
          "internalType": "uint256",
          "name": "votesCast",
          "type": "uint256"
        },
        {
          "internalType": "uint256[]",
          "name": "propositionVotes",
          "type": "uint256[]"
        }
      ],
      "stateMutability": "view",
      "type": "function"
    },
    {
      "inputs": [
        {
          "internalType": "uint256",
          "name": "_votingId",
          "type": "uint256"
        }
      ],
      "name": "getVotingStatus",
      "outputs": [
        {
          "internalType": "string",
          "name": "",
          "type": "string"
        }
      ],
      "stateMutability": "view",
      "type": "function"
    },
    {
      "inputs": [
        {
          "internalType": "address",
          "name": "_admin",
          "type": "address"
        }
      ],
      "name": "removeAdmin",
      "outputs": [],
      "stateMutability": "nonpayable",
      "type": "function"
    },
    {
      "inputs": [
        {
          "internalType": "address",
          "name": "_voter",
          "type": "address"
        }
      ],
      "name": "removeVoter",
      "outputs": [],
      "stateMutability": "nonpayable",
      "type": "function"
    },
    {
      "inputs": [
        {
          "internalType": "uint256",
          "name": "_votingId",
          "type": "uint256"
        },
        {
          "internalType": "uint256",
          "name": "_propositionIndex",
          "type": "uint256"
        }
      ],
      "name": "vote",
      "outputs": [],
      "stateMutability": "nonpayable",
      "type": "function"
    },
    {
      "inputs": [
        {
          "internalType": "address",
          "name": "",
          "type": "address"
        }
      ],
      "name": "voters",
      "outputs": [
        {
          "internalType": "bool",
          "name": "",
          "type": "bool"
        }
      ],
      "stateMutability": "view",
      "type": "function"
    },
    {
      "inputs": [],
      "name": "votingCount",
      "outputs": [
        {
          "internalType": "uint256",
          "name": "",
          "type": "uint256"
        }
      ],
      "stateMutability": "view",
      "type": "function"
    },
    {
      "inputs": [
        {
          "internalType": "uint256",
          "name": "",
          "type": "uint256"
        }
      ],
      "name": "votings",
      "outputs": [
        {
          "internalType": "uint256",
          "name": "id",
          "type": "uint256"
        },
        {
          "internalType": "string",
          "name": "title",
          "type": "string"
        },
        {
          "internalType": "uint256",
          "name": "startTime",
          "type": "uint256"
        },
        {
          "internalType": "uint256",
          "name": "endTime",
          "type": "uint256"
        },
        {
          "internalType": "enum VotingType",
          "name": "votingType",
          "type": "uint8"
        },
        {
          "internalType": "bytes32",
          "name": "metaCID",
          "type": "bytes32"
        },
        {
          "internalType": "bool",
          "name": "exists",
          "type": "bool"
        }
      ],
      "stateMutability": "view",
      "type": "function"
    }
  ],
  "bytecode": "0x6080604052348015600f57600080fd5b50336000806101000a81548173ffffffffffffffffffffffffffffffffffffffff021916908373ffffffffffffffffffffffffffffffffffffffff16021790555060018060008060009054906101000a900473ffffffffffffffffffffffffffffffffffffffff1673ffffffffffffffffffffffffffffffffffffffff1673ffffffffffffffffffffffffffffffffffffffff16815260200190815260200160002060006101000a81548160ff021916908315150217905550614680806100d76000396000f3fe608060405234801561001057600080fd5b506004361061012c5760003560e01c806387f7b975116100ad578063aad1639311610071578063aad16393146103a8578063b384abef146103d9578063b424ab84146103f5578063e58d452714610413578063f4ab9adf146104455761012c565b806387f7b975146102c45780638f633994146102e25780639c8cd71f14610312578063a3ec138d14610342578063a598d03c146103725761012c565b80636569a70e116100f45780636569a70e1461020e578063704802751461023f5780637319c4c61461025b57806383c552fe1461027757806386c1ff68146102a85761012c565b80631785f53c146101315780633afc72821461014d578063429b62e51461017d57806344276733146101ad578063595a5d38146101dd575b600080fd5b61014b60048036038101906101469190612d23565b610461565b005b61016760048036038101906101629190612d86565b61054a565b6040516101749190613034565b60405180910390f35b61019760048036038101906101929190612d23565b61070c565b6040516101a49190613071565b60405180910390f35b6101c760048036038101906101c29190612d23565b61072c565b6040516101d491906130d6565b60405180910390f35b6101f760048036038101906101f291906130f8565b61091a565b6040516102059291906132ac565b60405180910390f35b61022860048036038101906102239190613341565b610ed5565b604051610236929190613512565b60405180910390f35b61025960048036038101906102549190612d23565b6110b7565b005b6102756004803603810190610270919061378d565b61119f565b005b610291600480360381019061028c91906130f8565b61145b565b60405161029f9291906132ac565b60405180910390f35b6102c260048036038101906102bd9190612d23565b611a39565b005b6102cc611b76565b6040516102d99190613861565b60405180910390f35b6102fc60048036038101906102f79190612d86565b611b9a565b60405161030991906130d6565b60405180910390f35b61032c60048036038101906103279190612d86565b611cd9565b60405161033991906138eb565b60405180910390f35b61035c60048036038101906103579190612d23565b611e00565b6040516103699190613071565b60405180910390f35b61038c60048036038101906103879190612d86565b611e20565b60405161039f979695949392919061392b565b60405180910390f35b6103c260048036038101906103bd91906130f8565b611f04565b6040516103d09291906132ac565b60405180910390f35b6103f360048036038101906103ee91906130f8565b6124bf565b005b6103fd612872565b60405161040a91906139a1565b60405180910390f35b61042d60048036038101906104289190612d86565b612878565b60405161043c93929190613a6b565b60405180910390f35b61045f600480360381019061045a9190612d23565b612a95565b005b60008054906101000a900473ffffffffffffffffffffffffffffffffffffffff1673ffffffffffffffffffffffffffffffffffffffff163373ffffffffffffffffffffffffffffffffffffffff16146104ef576040517f08c379a00000000000000000000000000000000000000000000000000000000081526004016104e690613af5565b60405180910390fd5b6000600160008373ffffffffffffffffffffffffffffffffffffffff1673ffffffffffffffffffffffffffffffffffffffff16815260200190815260200160002060006101000a81548160ff02191690831515021790555050565b610552612c5f565b60006005600084815260200190815260200160002090508060090160009054906101000a900460ff166105ba576040517f08c379a00000000000000000000000000000000000000000000000000000000081526004016105b190613b61565b60405180910390fd5b60006040518060e00160405280836000015481526020018360010180546105e090613bb0565b80601f016020809104026020016040519081016040528092919081815260200182805461060c90613bb0565b80156106595780601f1061062e57610100808354040283529160200191610659565b820191906000526020600020905b81548152906001019060200180831161063c57829003601f168201915b50505050508152602001836002015481526020018360030154815260200183600501548152602001836006018054806020026020016040519081016040528092919081815260200182805480156106cf57602002820191906000526020600020905b8154815260200190600101908083116106bb575b505050505081526020018360040160009054906101000a900460ff1660018111156106fd576106fc612f1a565b5b81525090508092505050919050565b60016020528060005260406000206000915054906101000a900460ff1681565b606060008054906101000a900473ffffffffffffffffffffffffffffffffffffffff1673ffffffffffffffffffffffffffffffffffffffff168273ffffffffffffffffffffffffffffffffffffffff16036107be576040518060400160405280600881526020017f63686169726d616e0000000000000000000000000000000000000000000000008152509050610915565b600160008373ffffffffffffffffffffffffffffffffffffffff1673ffffffffffffffffffffffffffffffffffffffff16815260200190815260200160002060009054906101000a900460ff161561084d576040518060400160405280600581526020017f61646d696e0000000000000000000000000000000000000000000000000000008152509050610915565b600260008373ffffffffffffffffffffffffffffffffffffffff1673ffffffffffffffffffffffffffffffffffffffff16815260200190815260200160002060009054906101000a900460ff16156108dc576040518060400160405280600581526020017f766f7465720000000000000000000000000000000000000000000000000000008152509050610915565b6040518060400160405280600781526020017f756e6b6e6f776e0000000000000000000000000000000000000000000000000081525090505b919050565b6060600080841015610961576040517f08c379a000000000000000000000000000000000000000000000000000000000815260040161095890613c2d565b60405180910390fd5b600083116109a4576040517f08c379a000000000000000000000000000000000000000000000000000000000815260040161099b90613c99565b60405180910390fd5b600060045467ffffffffffffffff8111156109c2576109c161354e565b5b6040519080825280602002602001820160405280156109f05781602001602082028036833780820191505090505b509050600080600090505b600454811015610a8b576005600082815260200190815260200160002060090160009054906101000a900460ff168015610a4a5750600560008281526020019081526020016000206002015442105b15610a7e5780838381518110610a6357610a62613cb9565b5b6020026020010181815250508180610a7a90613d17565b9250505b80806001019150506109fb565b5060005b81811015610ba9576000600182610aa69190613d5f565b90505b82811015610b9b5760056000858381518110610ac857610ac7613cb9565b5b602002602001015181526020019081526020016000206002015460056000868581518110610af957610af8613cb9565b5b60200260200101518152602001908152602001600020600201541115610b8e57838181518110610b2c57610b2b613cb9565b5b6020026020010151848381518110610b4757610b46613cb9565b5b6020026020010151858481518110610b6257610b61613cb9565b5b60200260200101868481518110610b7c57610b7b613cb9565b5b60200260200101828152508281525050505b8080600101915050610aa9565b508080600101915050610a8f565b5060008587610bb89190613d93565b9050818110610c2357600067ffffffffffffffff811115610bdc57610bdb61354e565b5b604051908082528060200260200182016040528015610c1557816020015b610c02612c5f565b815260200190600190039081610bfa5790505b508294509450505050610ece565b6000828783610c329190613d5f565b11610c48578682610c439190613d5f565b610c4a565b825b90508181610c589190613dd5565b67ffffffffffffffff811115610c7157610c7061354e565b5b604051908082528060200260200182016040528015610caa57816020015b610c97612c5f565b815260200190600190039081610c8f5790505b50955060005b8282610cbc9190613dd5565b811015610ec5576000858285610cd29190613d5f565b81518110610ce357610ce2613cb9565b5b602002602001015190506040518060e00160405280828152602001600560008481526020019081526020016000206001018054610d1f90613bb0565b80601f0160208091040260200160405190810160405280929190818152602001828054610d4b90613bb0565b8015610d985780601f10610d6d57610100808354040283529160200191610d98565b820191906000526020600020905b815481529060010190602001808311610d7b57829003601f168201915b5050505050815260200160056000848152602001908152602001600020600201548152602001600560008481526020019081526020016000206003015481526020016005600084815260200190815260200160002060050154815260200160056000848152602001908152602001600020600601805480602002602001604051908101604052809291908181526020018280548015610e5657602002820191906000526020600020905b815481526020019060010190808311610e42575b505050505081526020016005600084815260200190815260200160002060040160009054906101000a900460ff166001811115610e9657610e95612f1a565b5b815250888381518110610eac57610eab613cb9565b5b6020026020010181905250508080600101915050610cb0565b50829450505050505b9250929050565b6060808383905067ffffffffffffffff811115610ef557610ef461354e565b5b604051908082528060200260200182016040528015610f2857816020015b6060815260200190600190039081610f135790505b5091508383905067ffffffffffffffff811115610f4857610f4761354e565b5b604051908082528060200260200182016040528015610f7b57816020015b6060815260200190600190039081610f665790505b50905060005b848490508110156110af5760056000868684818110610fa357610fa2613cb9565b5b9050602002013581526020019081526020016000206001018054610fc690613bb0565b80601f0160208091040260200160405190810160405280929190818152602001828054610ff290613bb0565b801561103f5780601f106110145761010080835404028352916020019161103f565b820191906000526020600020905b81548152906001019060200180831161102257829003601f168201915b505050505083828151811061105757611056613cb9565b5b602002602001018190525061108485858381811061107857611077613cb9565b5b90506020020135611cd9565b82828151811061109757611096613cb9565b5b60200260200101819052508080600101915050610f81565b509250929050565b60008054906101000a900473ffffffffffffffffffffffffffffffffffffffff1673ffffffffffffffffffffffffffffffffffffffff163373ffffffffffffffffffffffffffffffffffffffff1614611145576040517f08c379a000000000000000000000000000000000000000000000000000000000815260040161113c90613af5565b60405180910390fd5b60018060008373ffffffffffffffffffffffffffffffffffffffff1673ffffffffffffffffffffffffffffffffffffffff16815260200190815260200160002060006101000a81548160ff02191690831515021790555050565b600160003373ffffffffffffffffffffffffffffffffffffffff1673ffffffffffffffffffffffffffffffffffffffff16815260200190815260200160002060009054906101000a900460ff1680611242575060008054906101000a900473ffffffffffffffffffffffffffffffffffffffff1673ffffffffffffffffffffffffffffffffffffffff163373ffffffffffffffffffffffffffffffffffffffff16145b611281576040517f08c379a000000000000000000000000000000000000000000000000000000000815260040161127890613e55565b60405180910390fd5b4285116112c3576040517f08c379a00000000000000000000000000000000000000000000000000000000081526004016112ba90613ec1565b60405180910390fd5b848411611305576040517f08c379a00000000000000000000000000000000000000000000000000000000081526004016112fc90613f2d565b60405180910390fd5b6000600560006004548152602001908152602001600020905060045481600001819055508681600101908161133a91906140f9565b50858160020181905550848160030181905550838160040160006101000a81548160ff0219169083600181111561137457611373612f1a565b5b021790555082816005018190555060018160090160006101000a81548160ff021916908315150217905550600460008154809291906113b290613d17565b919050555060005b825181101561141557816006018382815181106113da576113d9613cb9565b5b6020026020010151908060018154018082558091505060019003906000526020600020016000909190919091505580806001019150506113ba565b506004547fca8aa543d351c1c4996be153127dbdcc10410245e7ee62094ce236d48ec38df4888660405161144a9291906141cb565b60405180910390a250505050505050565b60606000808410156114a2576040517f08c379a000000000000000000000000000000000000000000000000000000000815260040161149990613c2d565b60405180910390fd5b600083116114e5576040517f08c379a00000000000000000000000000000000000000000000000000000000081526004016114dc90613c99565b60405180910390fd5b600060045467ffffffffffffffff8111156115035761150261354e565b5b6040519080825280602002602001820160405280156115315781602001602082028036833780820191505090505b509050600080600090505b6004548110156115ef576005600082815260200190815260200160002060090160009054906101000a900460ff16801561158c575060056000828152602001908152602001600020600201544210155b80156115ae575060056000828152602001908152602001600020600301544211155b156115e257808383815181106115c7576115c6613cb9565b5b60200260200101818152505081806115de90613d17565b9250505b808060010191505061153c565b5060005b8181101561170d57600060018261160a9190613d5f565b90505b828110156116ff576005600085838151811061162c5761162b613cb9565b5b60200260200101518152602001908152602001600020600201546005600086858151811061165d5761165c613cb9565b5b602002602001015181526020019081526020016000206002015411156116f2578381815181106116905761168f613cb9565b5b60200260200101518483815181106116ab576116aa613cb9565b5b60200260200101518584815181106116c6576116c5613cb9565b5b602002602001018684815181106116e0576116df613cb9565b5b60200260200101828152508281525050505b808060010191505061160d565b5080806001019150506115f3565b506000858761171c9190613d93565b905081811061178757600067ffffffffffffffff8111156117405761173f61354e565b5b60405190808252806020026020018201604052801561177957816020015b611766612c5f565b81526020019060019003908161175e5790505b508294509450505050611a32565b60008287836117969190613d5f565b116117ac5786826117a79190613d5f565b6117ae565b825b905081816117bc9190613dd5565b67ffffffffffffffff8111156117d5576117d461354e565b5b60405190808252806020026020018201604052801561180e57816020015b6117fb612c5f565b8152602001906001900390816117f35790505b50955060005b82826118209190613dd5565b811015611a295760008582856118369190613d5f565b8151811061184757611846613cb9565b5b602002602001015190506040518060e0016040528082815260200160056000848152602001908152602001600020600101805461188390613bb0565b80601f01602080910402602001604051908101604052809291908181526020018280546118af90613bb0565b80156118fc5780601f106118d1576101008083540402835291602001916118fc565b820191906000526020600020905b8154815290600101906020018083116118df57829003601f168201915b50505050508152602001600560008481526020019081526020016000206002015481526020016005600084815260200190815260200160002060030154815260200160056000848152602001908152602001600020600501548152602001600560008481526020019081526020016000206006018054806020026020016040519081016040528092919081815260200182805480156119ba57602002820191906000526020600020905b8154815260200190600101908083116119a6575b505050505081526020016005600084815260200190815260200160002060040160009054906101000a900460ff1660018111156119fa576119f9612f1a565b5b815250888381518110611a1057611a0f613cb9565b5b6020026020010181905250508080600101915050611814565b50829450505050505b9250929050565b600160003373ffffffffffffffffffffffffffffffffffffffff1673ffffffffffffffffffffffffffffffffffffffff16815260200190815260200160002060009054906101000a900460ff1680611adc575060008054906101000a900473ffffffffffffffffffffffffffffffffffffffff1673ffffffffffffffffffffffffffffffffffffffff163373ffffffffffffffffffffffffffffffffffffffff16145b611b1b576040517f08c379a0000000000000000000000000000000000000000000000000000000008152600401611b1290613e55565b60405180910390fd5b6000600260008373ffffffffffffffffffffffffffffffffffffffff1673ffffffffffffffffffffffffffffffffffffffff16815260200190815260200160002060006101000a81548160ff02191690831515021790555050565b60008054906101000a900473ffffffffffffffffffffffffffffffffffffffff1681565b606060006005600084815260200190815260200160002090508060090160009054906101000a900460ff16611c07576040518060400160405280600981526020017f4e6f742045786973740000000000000000000000000000000000000000000000815250915050611cd4565b8060020154421015611c51576040518060400160405280600781526020017f50656e64696e6700000000000000000000000000000000000000000000000000815250915050611cd4565b80600301544211611c9a576040518060400160405280600681526020017f4163746976650000000000000000000000000000000000000000000000000000815250915050611cd4565b6040518060400160405280600981526020017f436f6d706c6574656400000000000000000000000000000000000000000000008152509150505b919050565b606060006005600084815260200190815260200160002090508060090160009054906101000a900460ff16611d43576040517f08c379a0000000000000000000000000000000000000000000000000000000008152600401611d3a90613b61565b60405180910390fd5b60008160060180549050905060008167ffffffffffffffff811115611d6b57611d6a61354e565b5b604051908082528060200260200182016040528015611d995781602001602082028036833780820191505090505b50905060005b82811015611df457836006018181548110611dbd57611dbc613cb9565b5b9060005260206000200154828281518110611ddb57611dda613cb9565b5b6020026020010181815250508080600101915050611d9f565b50809350505050919050565b60026020528060005260406000206000915054906101000a900460ff1681565b6005602052806000526040600020600091509050806000015490806001018054611e4990613bb0565b80601f0160208091040260200160405190810160405280929190818152602001828054611e7590613bb0565b8015611ec25780601f10611e9757610100808354040283529160200191611ec2565b820191906000526020600020905b815481529060010190602001808311611ea557829003601f168201915b5050505050908060020154908060030154908060040160009054906101000a900460ff16908060050154908060090160009054906101000a900460ff16905087565b6060600080841015611f4b576040517f08c379a0000000000000000000000000000000000000000000000000000000008152600401611f4290613c2d565b60405180910390fd5b60008311611f8e576040517f08c379a0000000000000000000000000000000000000000000000000000000008152600401611f8590613c99565b60405180910390fd5b600060045467ffffffffffffffff811115611fac57611fab61354e565b5b604051908082528060200260200182016040528015611fda5781602001602082028036833780820191505090505b509050600080600090505b600454811015612075576005600082815260200190815260200160002060090160009054906101000a900460ff1680156120345750600560008281526020019081526020016000206003015442115b15612068578083838151811061204d5761204c613cb9565b5b602002602001018181525050818061206490613d17565b9250505b8080600101915050611fe5565b5060005b818110156121935760006001826120909190613d5f565b90505b8281101561218557600560008583815181106120b2576120b1613cb9565b5b6020026020010151815260200190815260200160002060030154600560008685815181106120e3576120e2613cb9565b5b602002602001015181526020019081526020016000206003015410156121785783818151811061211657612115613cb9565b5b602002602001015184838151811061213157612130613cb9565b5b602002602001015185848151811061214c5761214b613cb9565b5b6020026020010186848151811061216657612165613cb9565b5b60200260200101828152508281525050505b8080600101915050612093565b508080600101915050612079565b50600085876121a29190613d93565b905081811061220d57600067ffffffffffffffff8111156121c6576121c561354e565b5b6040519080825280602002602001820160405280156121ff57816020015b6121ec612c5f565b8152602001906001900390816121e45790505b5082945094505050506124b8565b600082878361221c9190613d5f565b1161223257868261222d9190613d5f565b612234565b825b905081816122429190613dd5565b67ffffffffffffffff81111561225b5761225a61354e565b5b60405190808252806020026020018201604052801561229457816020015b612281612c5f565b8152602001906001900390816122795790505b50955060005b82826122a69190613dd5565b8110156124af5760008582856122bc9190613d5f565b815181106122cd576122cc613cb9565b5b602002602001015190506040518060e0016040528082815260200160056000848152602001908152602001600020600101805461230990613bb0565b80601f016020809104026020016040519081016040528092919081815260200182805461233590613bb0565b80156123825780601f1061235757610100808354040283529160200191612382565b820191906000526020600020905b81548152906001019060200180831161236557829003601f168201915b505050505081526020016005600084815260200190815260200160002060020154815260200160056000848152602001908152602001600020600301548152602001600560008481526020019081526020016000206005015481526020016005600084815260200190815260200160002060060180548060200260200160405190810160405280929190818152602001828054801561244057602002820191906000526020600020905b81548152602001906001019080831161242c575b505050505081526020016005600084815260200190815260200160002060040160009054906101000a900460ff1660018111156124805761247f612f1a565b5b81525088838151811061249657612495613cb9565b5b602002602001018190525050808060010191505061229a565b50829450505050505b9250929050565b600260003373ffffffffffffffffffffffffffffffffffffffff1673ffffffffffffffffffffffffffffffffffffffff16815260200190815260200160002060009054906101000a900460ff1661254b576040517f08c379a000000000000000000000000000000000000000000000000000000000815260040161254290614247565b60405180910390fd5b60006005600084815260200190815260200160002090508060090160009054906101000a900460ff166125b3576040517f08c379a00000000000000000000000000000000000000000000000000000000081526004016125aa906142b3565b60405180910390fd5b80600201544210156126185760004282600201546125d19190613dd5565b9050816002015442826040517fb50c604c00000000000000000000000000000000000000000000000000000000815260040161260f939291906142d3565b60405180910390fd5b806002015442101561265f576040517f08c379a000000000000000000000000000000000000000000000000000000000815260040161265690614356565b60405180910390fd5b80600301544211156126a6576040517f08c379a000000000000000000000000000000000000000000000000000000000815260040161269d906143c2565b60405180910390fd5b8060070160003373ffffffffffffffffffffffffffffffffffffffff1673ffffffffffffffffffffffffffffffffffffffff16815260200190815260200160002060009054906101000a900460ff1615612735576040517f08c379a000000000000000000000000000000000000000000000000000000000815260040161272c9061442e565b60405180910390fd5b8060060180549050821061277e576040517f08c379a00000000000000000000000000000000000000000000000000000000081526004016127759061449a565b60405180910390fd5b60018160070160003373ffffffffffffffffffffffffffffffffffffffff1673ffffffffffffffffffffffffffffffffffffffff16815260200190815260200160002060006101000a81548160ff021916908315150217905550818160080160003373ffffffffffffffffffffffffffffffffffffffff1673ffffffffffffffffffffffffffffffffffffffff16815260200190815260200160002081905550823373ffffffffffffffffffffffffffffffffffffffff167fb4cfecf70861b7b150d8337780d34fb4cbc2114b5fb1fe51a5c5fca1849f72748460405161286591906139a1565b60405180910390a3505050565b60045481565b600080606060006005600086815260200190815260200160002090508060090160009054906101000a900460ff166128e5576040517f08c379a00000000000000000000000000000000000000000000000000000000081526004016128dc90613b61565b60405180910390fd5b6001808111156128f8576128f7612f1a565b5b8160040160009054906101000a900460ff16600181111561291c5761291b612f1a565b5b036129bb5780600301544211612967576040517f08c379a000000000000000000000000000000000000000000000000000000000815260040161295e9061452c565b60405180910390fd5b610e1081600301546129799190613d5f565b42116129ba576040517f08c379a00000000000000000000000000000000000000000000000000000000081526004016129b1906145be565b60405180910390fd5b5b6000600360008781526020019081526020016000209050816006018054905067ffffffffffffffff8111156129f3576129f261354e565b5b604051908082528060200260200182016040528015612a215781602001602082028036833780820191505090505b50925060005b8351811015612a7d57816002018181548110612a4657612a45613cb9565b5b9060005260206000200154848281518110612a6457612a63613cb9565b5b6020026020010181815250508080600101915050612a27565b50806000015481600101549450945050509193909250565b600160003373ffffffffffffffffffffffffffffffffffffffff1673ffffffffffffffffffffffffffffffffffffffff16815260200190815260200160002060009054906101000a900460ff1680612b38575060008054906101000a900473ffffffffffffffffffffffffffffffffffffffff1673ffffffffffffffffffffffffffffffffffffffff163373ffffffffffffffffffffffffffffffffffffffff16145b612b77576040517f08c379a0000000000000000000000000000000000000000000000000000000008152600401612b6e90613e55565b60405180910390fd5b600260008273ffffffffffffffffffffffffffffffffffffffff1673ffffffffffffffffffffffffffffffffffffffff16815260200190815260200160002060009054906101000a900460ff1615612c04576040517f08c379a0000000000000000000000000000000000000000000000000000000008152600401612bfb9061462a565b60405180910390fd5b6001600260008373ffffffffffffffffffffffffffffffffffffffff1673ffffffffffffffffffffffffffffffffffffffff16815260200190815260200160002060006101000a81548160ff02191690831515021790555050565b6040518060e0016040528060008152602001606081526020016000815260200160008152602001600080191681526020016060815260200160006001811115612cab57612caa612f1a565b5b81525090565b6000604051905090565b600080fd5b600080fd5b600073ffffffffffffffffffffffffffffffffffffffff82169050919050565b6000612cf082612cc5565b9050919050565b612d0081612ce5565b8114612d0b57600080fd5b50565b600081359050612d1d81612cf7565b92915050565b600060208284031215612d3957612d38612cbb565b5b6000612d4784828501612d0e565b91505092915050565b6000819050919050565b612d6381612d50565b8114612d6e57600080fd5b50565b600081359050612d8081612d5a565b92915050565b600060208284031215612d9c57612d9b612cbb565b5b6000612daa84828501612d71565b91505092915050565b612dbc81612d50565b82525050565b600081519050919050565b600082825260208201905092915050565b60005b83811015612dfc578082015181840152602081019050612de1565b60008484015250505050565b6000601f19601f8301169050919050565b6000612e2482612dc2565b612e2e8185612dcd565b9350612e3e818560208601612dde565b612e4781612e08565b840191505092915050565b6000819050919050565b612e6581612e52565b82525050565b600081519050919050565b600082825260208201905092915050565b6000819050602082019050919050565b6000612ea38383612e5c565b60208301905092915050565b6000602082019050919050565b6000612ec782612e6b565b612ed18185612e76565b9350612edc83612e87565b8060005b83811015612f0d578151612ef48882612e97565b9750612eff83612eaf565b925050600181019050612ee0565b5085935050505092915050565b7f4e487b7100000000000000000000000000000000000000000000000000000000600052602160045260246000fd5b60028110612f5a57612f59612f1a565b5b50565b6000819050612f6b82612f49565b919050565b6000612f7b82612f5d565b9050919050565b612f8b81612f70565b82525050565b600060e083016000830151612fa96000860182612db3565b5060208301518482036020860152612fc18282612e19565b9150506040830151612fd66040860182612db3565b506060830151612fe96060860182612db3565b506080830151612ffc6080860182612e5c565b5060a083015184820360a08601526130148282612ebc565b91505060c083015161302960c0860182612f82565b508091505092915050565b6000602082019050818103600083015261304e8184612f91565b905092915050565b60008115159050919050565b61306b81613056565b82525050565b60006020820190506130866000830184613062565b92915050565b600082825260208201905092915050565b60006130a882612dc2565b6130b2818561308c565b93506130c2818560208601612dde565b6130cb81612e08565b840191505092915050565b600060208201905081810360008301526130f0818461309d565b905092915050565b6000806040838503121561310f5761310e612cbb565b5b600061311d85828601612d71565b925050602061312e85828601612d71565b9150509250929050565b600081519050919050565b600082825260208201905092915050565b6000819050602082019050919050565b600060e08301600083015161317c6000860182612db3565b50602083015184820360208601526131948282612e19565b91505060408301516131a96040860182612db3565b5060608301516131bc6060860182612db3565b5060808301516131cf6080860182612e5c565b5060a083015184820360a08601526131e78282612ebc565b91505060c08301516131fc60c0860182612f82565b508091505092915050565b60006132138383613164565b905092915050565b6000602082019050919050565b600061323382613138565b61323d8185613143565b93508360208202850161324f85613154565b8060005b8581101561328b578484038952815161326c8582613207565b94506132778361321b565b925060208a01995050600181019050613253565b50829750879550505050505092915050565b6132a681612d50565b82525050565b600060408201905081810360008301526132c68185613228565b90506132d5602083018461329d565b9392505050565b600080fd5b600080fd5b600080fd5b60008083601f840112613301576133006132dc565b5b8235905067ffffffffffffffff81111561331e5761331d6132e1565b5b60208301915083602082028301111561333a576133396132e6565b5b9250929050565b6000806020838503121561335857613357612cbb565b5b600083013567ffffffffffffffff81111561337657613375612cc0565b5b613382858286016132eb565b92509250509250929050565b600081519050919050565b600082825260208201905092915050565b6000819050602082019050919050565b60006133c68383612e19565b905092915050565b6000602082019050919050565b60006133e68261338e565b6133f08185613399565b935083602082028501613402856133aa565b8060005b8581101561343e578484038952815161341f85826133ba565b945061342a836133ce565b925060208a01995050600181019050613406565b50829750879550505050505092915050565b600081519050919050565b600082825260208201905092915050565b6000819050602082019050919050565b60006134888383612ebc565b905092915050565b6000602082019050919050565b60006134a882613450565b6134b2818561345b565b9350836020820285016134c48561346c565b8060005b8581101561350057848403895281516134e1858261347c565b94506134ec83613490565b925060208a019950506001810190506134c8565b50829750879550505050505092915050565b6000604082019050818103600083015261352c81856133db565b90508181036020830152613540818461349d565b90509392505050565b600080fd5b7f4e487b7100000000000000000000000000000000000000000000000000000000600052604160045260246000fd5b61358682612e08565b810181811067ffffffffffffffff821117156135a5576135a461354e565b5b80604052505050565b60006135b8612cb1565b90506135c4828261357d565b919050565b600067ffffffffffffffff8211156135e4576135e361354e565b5b6135ed82612e08565b9050602081019050919050565b82818337600083830152505050565b600061361c613617846135c9565b6135ae565b90508281526020810184848401111561363857613637613549565b5b6136438482856135fa565b509392505050565b600082601f8301126136605761365f6132dc565b5b8135613670848260208601613609565b91505092915050565b6002811061368657600080fd5b50565b60008135905061369881613679565b92915050565b6136a781612e52565b81146136b257600080fd5b50565b6000813590506136c48161369e565b92915050565b600067ffffffffffffffff8211156136e5576136e461354e565b5b602082029050602081019050919050565b6000613709613704846136ca565b6135ae565b9050808382526020820190506020840283018581111561372c5761372b6132e6565b5b835b81811015613755578061374188826136b5565b84526020840193505060208101905061372e565b5050509392505050565b600082601f830112613774576137736132dc565b5b81356137848482602086016136f6565b91505092915050565b60008060008060008060c087890312156137aa576137a9612cbb565b5b600087013567ffffffffffffffff8111156137c8576137c7612cc0565b5b6137d489828a0161364b565b96505060206137e589828a01612d71565b95505060406137f689828a01612d71565b945050606061380789828a01613689565b935050608061381889828a016136b5565b92505060a087013567ffffffffffffffff81111561383957613838612cc0565b5b61384589828a0161375f565b9150509295509295509295565b61385b81612ce5565b82525050565b60006020820190506138766000830184613852565b92915050565b600082825260208201905092915050565b600061389882612e6b565b6138a2818561387c565b93506138ad83612e87565b8060005b838110156138de5781516138c58882612e97565b97506138d083612eaf565b9250506001810190506138b1565b5085935050505092915050565b60006020820190508181036000830152613905818461388d565b905092915050565b61391681612f70565b82525050565b61392581612e52565b82525050565b600060e082019050613940600083018a61329d565b8181036020830152613952818961309d565b9050613961604083018861329d565b61396e606083018761329d565b61397b608083018661390d565b61398860a083018561391c565b61399560c0830184613062565b98975050505050505050565b60006020820190506139b6600083018461329d565b92915050565b600081519050919050565b600082825260208201905092915050565b6000819050602082019050919050565b60006139f48383612db3565b60208301905092915050565b6000602082019050919050565b6000613a18826139bc565b613a2281856139c7565b9350613a2d836139d8565b8060005b83811015613a5e578151613a4588826139e8565b9750613a5083613a00565b925050600181019050613a31565b5085935050505092915050565b6000606082019050613a80600083018661329d565b613a8d602083018561329d565b8181036040830152613a9f8184613a0d565b9050949350505050565b7f4e6f742063686169726d616e0000000000000000000000000000000000000000600082015250565b6000613adf600c8361308c565b9150613aea82613aa9565b602082019050919050565b60006020820190508181036000830152613b0e81613ad2565b9050919050565b7f566f74696e6720646f6573206e6f742065786973740000000000000000000000600082015250565b6000613b4b60158361308c565b9150613b5682613b15565b602082019050919050565b60006020820190508181036000830152613b7a81613b3e565b9050919050565b7f4e487b7100000000000000000000000000000000000000000000000000000000600052602260045260246000fd5b60006002820490506001821680613bc857607f821691505b602082108103613bdb57613bda613b81565b5b50919050565b7f50616765206d757374206265206174206c656173742030000000000000000000600082015250565b6000613c1760178361308c565b9150613c2282613be1565b602082019050919050565b60006020820190508181036000830152613c4681613c0a565b9050919050565b7f70657250616765206d757374206265206174206c656173742031000000000000600082015250565b6000613c83601a8361308c565b9150613c8e82613c4d565b602082019050919050565b60006020820190508181036000830152613cb281613c76565b9050919050565b7f4e487b7100000000000000000000000000000000000000000000000000000000600052603260045260246000fd5b7f4e487b7100000000000000000000000000000000000000000000000000000000600052601160045260246000fd5b6000613d2282612d50565b91507fffffffffffffffffffffffffffffffffffffffffffffffffffffffffffffffff8203613d5457613d53613ce8565b5b600182019050919050565b6000613d6a82612d50565b9150613d7583612d50565b9250828201905080821115613d8d57613d8c613ce8565b5b92915050565b6000613d9e82612d50565b9150613da983612d50565b9250828202613db781612d50565b91508282048414831517613dce57613dcd613ce8565b5b5092915050565b6000613de082612d50565b9150613deb83612d50565b9250828203905081811115613e0357613e02613ce8565b5b92915050565b7f4e6f742061646d696e0000000000000000000000000000000000000000000000600082015250565b6000613e3f60098361308c565b9150613e4a82613e09565b602082019050919050565b60006020820190508181036000830152613e6e81613e32565b9050919050565b7f496e76616c69642073746172742074696d650000000000000000000000000000600082015250565b6000613eab60128361308c565b9150613eb682613e75565b602082019050919050565b60006020820190508181036000830152613eda81613e9e565b9050919050565b7f496e76616c696420656e642074696d6500000000000000000000000000000000600082015250565b6000613f1760108361308c565b9150613f2282613ee1565b602082019050919050565b60006020820190508181036000830152613f4681613f0a565b9050919050565b60008190508160005260206000209050919050565b60006020601f8301049050919050565b600082821b905092915050565b600060088302613faf7fffffffffffffffffffffffffffffffffffffffffffffffffffffffffffffffff82613f72565b613fb98683613f72565b95508019841693508086168417925050509392505050565b6000819050919050565b6000613ff6613ff1613fec84612d50565b613fd1565b612d50565b9050919050565b6000819050919050565b61401083613fdb565b61402461401c82613ffd565b848454613f7f565b825550505050565b600090565b61403961402c565b614044818484614007565b505050565b5b818110156140685761405d600082614031565b60018101905061404a565b5050565b601f8211156140ad5761407e81613f4d565b61408784613f62565b81016020851015614096578190505b6140aa6140a285613f62565b830182614049565b50505b505050565b600082821c905092915050565b60006140d0600019846008026140b2565b1980831691505092915050565b60006140e983836140bf565b9150826002028217905092915050565b61410282612dc2565b67ffffffffffffffff81111561411b5761411a61354e565b5b6141258254613bb0565b61413082828561406c565b600060209050601f8311600181146141635760008415614151578287015190505b61415b85826140dd565b8655506141c3565b601f19841661417186613f4d565b60005b8281101561419957848901518255600182019150602085019450602081019050614174565b868310156141b657848901516141b2601f8916826140bf565b8355505b6001600288020188555050505b505050505050565b600060408201905081810360008301526141e5818561309d565b90506141f4602083018461390d565b9392505050565b7f4e6f7420617574686f72697a6564000000000000000000000000000000000000600082015250565b6000614231600e8361308c565b915061423c826141fb565b602082019050919050565b6000602082019050818103600083015261426081614224565b9050919050565b7f496e76616c696420766f74696e67000000000000000000000000000000000000600082015250565b600061429d600e8361308c565b91506142a882614267565b602082019050919050565b600060208201905081810360008301526142cc81614290565b9050919050565b60006060820190506142e8600083018661329d565b6142f5602083018561329d565b614302604083018461329d565b949350505050565b7f566f74696e67206e6f7420737461727465640000000000000000000000000000600082015250565b600061434060128361308c565b915061434b8261430a565b602082019050919050565b6000602082019050818103600083015261436f81614333565b9050919050565b7f566f74696e6720656e6465640000000000000000000000000000000000000000600082015250565b60006143ac600c8361308c565b91506143b782614376565b602082019050919050565b600060208201905081810360008301526143db8161439f565b9050919050565b7f416c726561647920766f74656400000000000000000000000000000000000000600082015250565b6000614418600d8361308c565b9150614423826143e2565b602082019050919050565b600060208201905081810360008301526144478161440b565b9050919050565b7f496e76616c69642070726f706f736974696f6e00000000000000000000000000600082015250565b600061448460138361308c565b915061448f8261444e565b602082019050919050565b600060208201905081810360008301526144b381614477565b9050919050565b7f5072697661746520766f74696e6720696e2070726f67726573732e205265737560008201527f6c747320617661696c61626c6520616674657220636f6d706c6574696f6e0000602082015250565b6000614516603e8361308c565b9150614521826144ba565b604082019050919050565b6000602082019050818103600083015261454581614509565b9050919050565b7f526573756c747320756e646572676f696e672066696e616c207665726966696360008201527f6174696f6e000000000000000000000000000000000000000000000000000000602082015250565b60006145a860258361308c565b91506145b38261454c565b604082019050919050565b600060208201905081810360008301526145d78161459b565b9050919050565b7f566f74657220616c726561647920657869737473000000000000000000000000600082015250565b600061461460148361308c565b915061461f826145de565b602082019050919050565b6000602082019050818103600083015261464381614607565b905091905056fea2646970667358221220a200a9f73b0f1667d2ec3b8b3242df12d02735ed44bd8681b43c360a664c843c64736f6c634300081c0033",
  "linkReferences": {},
  "deployedLinkReferences": {}
}